:020000040800F2
:10000000080700209D010008A7210008ED1D000839
:10001000A521000885070008D92800080000000075
:10002000000000000000000000000000B5220008F1
:100030008707000800000000F1210008B72200082F
:10004000B7010008B7010008B7010008B7010008B0
:10005000B7010008B7010008B7010008B7010008A0
:10006000B7010008B7010008B7010008B701000890
:10007000B7010008B7010008B7010008B701000880
:10008000B7010008B7010008B7010008B701000870
:10009000B7010008B7010008B7010008B701000860
:1000A000B701000861230008B7010008B701000884
:1000B000B7010008B7010008B7010008B701000840
:1000C000B7010008B7010008B7010008B701000830
:1000D000B7010008B7010008C1280008CD280008B2
:1000E00089070008B7010008B7010008B701000838
:1000F000B7010008B7010008B7010008B701000800
:10010000B7010008B7010008B7010008B7010008EF
:10011000D5250008B7010008B7010008B70100089D
:10012000B7010008B7010008B7010008B7010008CF
:10013000B7010008B7010008B7010008B7010008BF
:10014000B7010008B7010008B7010008B7010008AF
:10015000B7010008B7010008B7010008B70100089F
:10016000B7010008B7010008B7010008B70100088F
:10017000B7010008B7010008B7010008000000003F
:10018000B7010008B7010008DFF80CD000F0E8FA6A
:10019000004800479D3300080807002006488047B4
:1001A00006480047FEE7FEE7FEE7FEE7FEE7FEE75C
:1001B000FEE7FEE7FEE7FEE751230008890100089D
:1001C0002DE9F05F0546002092469B46884606468C
:1001D000814640241BE0284641464746224600F01F
:1001E0009AF953465A46C01A914110D311461846FF
:1001F000224600F081F92D1A67EB01084F4622468E
:100200000120002100F078F917EB00094E41201E73
:10021000A4F10104DFDC484631462A464346BDE8E6
:10022000F09FD2B201E000F8012B491EFBD27047CB
:100230000022F6E710B513460A4604461946FFF7B2
:10024000F0FF204610BD2DE9FE4F804681EA0300F5
:10025000C00F0C46009021F0004123F00045B8EBA0
:100260000200A94105D24046214690461C460B4655
:10027000024623F00040104347D0270DC7F30A0081
:10028000C3F30A510290401A019040286BDAC3F37D
:10029000130040F4801B0098924620B10023D2EB5B
:1002A000030A63EB0B0B01985946C0F1400250461C
:1002B00000F022F906460D4650465946019A00F0D4
:1002C0003AF910EB08006141002487EA115284EAF0
:1002D000E7731A4340D0009A62B3019A012A4FEAA9
:1002E000075215DC001B61EB02014FF0004202EAED
:1002F0000752CDE90042001C41F5801132462B46E1
:1003000000F071F903B0BDE8F08F40462146F9E7EF
:10031000001B61EB0201001C41F5801300185B41DA
:100320002018A2F5001747EB030140EAD570B61973
:100330006D4111E06D084FEA360645EAC0754FEA97
:100340000752001B61EB0201001C41F580114908B6
:100350004FEA30000019514132462B4603B0BDE848
:10036000F04F00F031B90098012240000023D0EB9B
:10037000020263EBE073009821464FEAE074B8EBA9
:10038000000061EB0401E9E783F000435BE781F0E3
:10039000004158E72DE9FE4F81EA030404F00044D0
:1003A00021F0004100944FF0000B23F0004350EA8D
:1003B00001045ED052EA03045BD0C3F30A54C1F3D4
:1003C0000A552C44A4F2F3340194A0FB0254C1F367
:1003D000130141F48011C3F3130343F4801301FBB1
:1003E000024400FB034E840A970A44EA815447EA18
:1003F0008357A4FB076802958D0A05FB07854FEA22
:10040000932C04FB0C542705029D4FEA065847EA3B
:100410001637B5EB08056EEB070C870E920E47EA10
:10042000811742EA8312A7FB0201B6EB0B0164EBD2
:1004300000042B0D43EA0C335E1844EB1C50DA46E3
:100440005146E7FB0201C5F313044FEA0B3343EABD
:1004500014534FEA0432019C43EA0603A4F10C044E
:100460000294009CCDE900B400F0BDF803B0BDE8F3
:10047000F08F00200146F9E70EB5C10F80EAE07069
:100480000844CA07002140F233438DE80E000A46B3
:100490000B4600F0A8F803B000BD00F0004230F0B9
:1004A00000400AD0C10D01F56071C0F3160042EAA8
:1004B0000151C208400711437047002001467047B0
:1004C00001F0004330B421F0004150EA010206D0AF
:1004D0000A0DA2F56072C1F31301002A02DC30BCE0
:1004E00000207047440F44EAC104C100E01830BC4A
:1004F00000EBC25000F031B8202A04DB203A00FAA9
:1005000002F1002070479140C2F1200320FA03F36A
:10051000194390407047202A04DB203A21FA02F068
:100520000021704721FA02F3D040C2F1200291402D
:10053000084319467047202A06DBCB17203A41FAB8
:1005400002F043EAE07306E041FA02F3D040C2F160
:10055000200291400843194670470029A8BF704700
:10056000401C490008BF20F00100704710B4B0FAE9
:1005700080FC00FA0CF050EA010404BF10BC704784
:1005800049B1CCF1200421FA04F411FA0CF118BF9E
:10059000012121430843A3EB0C01CB1D4FEA00616D
:1005A0004FEA102042BF002010BC704700EBC35040
:1005B00010440029A4BF10BC7047401C490008BF6C
:1005C00020F0010010BC704710B5141E73F1000438
:1005D00008DA401C41F1000192185B411A4301D135
:1005E00020F0010010BD2DE9F04D92469B4611B15F
:1005F000B1FA81F202E0B0FA80F220329046FFF7C1
:100600007BFF04460F4640EA0A0041EA0B015346CD
:100610005A46084313D0114653EA010019D0C8F1D5
:1006200040025046FFF777FF05460E4650465946B2
:100630004246FFF761FF084305D0012004E0204651
:100640003946BDE8F08D0020054346EAE0762C43AC
:1006500037430A986305E40AA0EB08000022FD0A6C
:1006600044EA47540A3002D500200146E9E7010573
:1006700010196941DDE9084500196941BDE8F04DEF
:10068000A2E72DE9F04D81EA030404F0004B21F0CC
:10069000004514464FF0000A23F0004150EA0502DD
:1006A00020D054EA01021DD0C5F30A570246C5F313
:1006B0001303C1F31300C1F30A5640F4801543F449
:1006C0008013A7EB0608101BD64608F2FD3873EB23
:1006D000050002D308F1010801E092185B41B8F16E
:1006E000000F03DA00200146BDE8F08D00204FF432
:1006F0008011064684460EE0171B73EB050705D3F1
:10070000121B63EB050306434CEA010C49084FEA50
:10071000300092185B4150EA0107EDD152EA030024
:1007200012D082EA040083EA0501084305D0101BB9
:10073000AB4106D20122002306E000224FF0004325
:1007400002E06FF0010253101AEB06004CEB085167
:1007500010EB0A0041EB0B01BDE8F04DFFF734BF91
:10076000064C074D06E0E06840F0010394E80700FE
:1007700098471034AC42F6D3FFF70AFD683A0008F8
:10078000883A0008FEE7704710B54FF4006000F0AB
:10079000A9F8BDE810404FF4804000F0A3B872B64D
:1007A000FEE72DE9F0410446876D00F0A9F9064601
:1007B00094F835000025022806D08020606584F872
:1007C00034500120BDE8F0812068016821F0160155
:1007D00001602068416921F080014161206C08B905
:1007E000A06C20B12068016821F008010160206838
:1007F000016821F0010101600CE000F081F9801B2B
:10080000052807D920206065032084F8350084F886
:100810003450D7E720680068C007EED194F85C1028
:100820003F208840B860012084F8350084F83450B7
:100830000020C7E790F83510022903D080214165D8
:1008400001207047052180F835100068016821F00B
:10085000010101600020704770B5044600F050F9B6
:100860000546601C02D004480078044400F048F9B2
:10087000401BA042FAD370BD8C00002070B54FF42D
:1008800000652DED028BB7EE008A124A124CA84289
:100890000CD18110104600F029F910490FE000BF7B
:1008A00081ED000A2560BDEC028B70BD4FF48045E0
:1008B000A842F8D14110104600F018F90849012863
:1008C00091ED000A02D030EE480AE9E730EE080A5E
:1008D000E6E7000000100240143C01404C000020FC
:1008E00044000020044910B50A68024202D00860A2
:1008F000FFF7C4FF10BD0000143C01402DE9F84F84
:10090000DFF8BCA10022012503264FF00F090AF1F0
:10091000040BAAF1040E00BF0B6805FA02F4234091
:10092000A34270D10F7907F00307012F01D0022FE6
:1009300016D187684FEA420806FA08FC27EA0C0736
:10094000D1F80CC00CFA08FC4CEA070CC0F808C03F
:100950004768A7430C79C4F3001494403C434460B7
:100960000C79E443A4070AD0C4684FEA420C06FAA3
:100970000CF7BC438F6807FA0CF72743C7600C7964
:1009800004F00304022C12D1D40800EB840CDCF830
:1009900020405707FF0E09FA07F824EA0804D1F8A7
:1009A000108008FA07F848EA0408CCF820800468A8
:1009B0004FEA420C06FA0CF7BC430F7907F0030725
:1009C00007FA0CF7274307604C6814F4403F70D0D7
:1009D0003C4C276847F480472760246822F00307CF
:1009E00004F480440094384C07EB040CDCF808480D
:1009F00097074FEA177809FA08F7BC43334FB84214
:100A000002D1002724E054E0314FB84201D1012740
:100A10001EE0304FB84201D1022719E02E4FB842F4
:100A200001D1032714E02D4FB84201D104270FE074
:100A30002B4FB84201D105270AE02A4FB84201D115
:100A4000062705E0284FB84201D1072700E0082714
:100A500007FA08F72743CCF80878DAF80040574639
:100A6000D1F804C09C435FEACC2C00D51C433C6009
:100A7000DBF800405F46D1F804C09C435FEA8C2C51
:100A800000D51C433C60DEF800407746D1F804C036
:100A90009C435FEA8C3C00D51C433C60084F083FF8
:100AA0003C68D1F804C09C435FEACC3C00D51C43B1
:100AB0003C60521C102AFFF42FAFBDE8F88F0000F5
:100AC000083C014044380240003001400000024030
:100AD0000004024000080240000C024000100240E6
:100AE0000014024000180240001C02400069084047
:100AF00000D0012070470AB1816170470904FBE70B
:100B000001488068704700008C000020024881681E
:100B100002781144816070478C0000200B4810B5AA
:100B2000016841F400710160016841F48061016075
:100B3000016841F480710160032000F06FF80F201C
:100B400000F006F800F024F8002010BD003C024040
:100B500070B50D4D04464FF47A712878B1FBF0F072
:100B60000A490968B1FBF0F000F00CFB48B9102C01
:100B700007D200222146501E00F030F800206C60A1
:100B800070BD012070BD00008C0000209800002086
:100B90000A4808B5016841F480410160006800F42A
:100BA000804000900548001F016841F080510160BD
:100BB000006800F08050009008BD000044380240FA
:100BC000002809DB00F01F0201219140400980004C
:100BD00000F1E020C0F8001170470000F0B40E4BA7
:100BE0001B680C46C3F30223C3F10705042D00D98B
:100BF0000425191D072901D2002300E0DB1E012670
:100C000006FA05F1491E214099409E40761E164085
:100C10003143F0BC01F079BE0CED00E0064900F074
:100C2000070208684FF6FF03184040EA0220034A13
:100C300010430860704700000CED00E00000FA056A
:100C40002DE9F0470E46050065D0DFF81481D8F88D
:100C50000000F7B200F00700B04207D288F8007039
:100C6000D8F8000000F00700B04254D128683D4C8D
:100C7000810712D5400703D5206840F4E05020607A
:100C80002878000703D5206840F460402060206881
:100C9000A96820F0F000084320602878C0072DD014
:100CA000304968680839012812D0022813D0032877
:100CB00011D00968890700292DDA216821F0030184
:100CC00001432160FFF71CFF814641F2883A0EE0A4
:100CD00009688903EFE709688901ECE7FFF710FF6E
:100CE000A0EB0901514502D90320BDE8F087206837
:100CF000696800F00C00B0EB810FEFD1D8F800105C
:100D0000404601F00701B14207D90770006800F0C2
:100D10000700B04201D00120E7E72878400705D559
:100D20002068E96820F4E050084320602878000734
:100D300006D52068296920F4604040EAC10020609F
:100D400000F038F82168084AC1F30311515CC8402B
:100D50000649086006480068FFF7FAFE0020C4E76D
:100D6000003C024008380240B039000898000020DA
:100D7000900000200448054900680968044AC1F34E
:100D80008221515CC840704798000020083802401A
:100D9000C03900080448054900680968044AC1F3DD
:100DA0004231515CC840704798000020083802402A
:100DB000C0390008154810B5006810F00C0214483E
:100DC00013D01449042A0FD0082A0ED10F4C241F27
:100DD0002268236802F03F025B0207D52068C0F357
:100DE0008810A0FB010106E0084610BD2168C1F390
:100DF0008811A1FB00010023FFF7E2F92168C1F38C
:100E00000141491C4900B0FBF1F010BD0838024017
:100E10000024F40040787D012DE9F84F04006ED0E5
:100E20002078DFF84C93C007A9F104054AD009F1F6
:100E300004000168C1F38101012908D00068C0F3F2
:100E4000810002280AD1D9F80000400206D528689E
:100E5000800337D560680028E1D033E06068B0F5E2
:100E6000803F10D0B0F5A02F286810D020F480303B
:100E70002860286820F4802028606068A8B1FFF707
:100E80003FFE06460DE0286840F48030F4E740F469
:100E900080202860F7E700BFFFF732FE801B642840
:100EA00073D828688003F7D50CE0FFF729FE0646C3
:100EB00005E000BFFFF724FE801B6428F0D82868F7
:100EC0008003F7D42078DFF8AC8280074FF0000A67
:100ED0003ED5A748001D016811F00C0F08D000682E
:100EE000C0F3810002280BD1D9F80000400207D4DA
:100EF0002868800716D5E068012800D112E033E1A8
:100F0000E068B8B10120C8F80000FFF7F9FD064617
:100F100005E000BFFFF7F4FD801B0228C0D8286859
:100F20008007F7D52868216920F0F80040EAC10061
:100F300028600DE0C8F800A0FFF7E2FD064604E0D7
:100F4000FFF7DEFD801B02281FD828688007F7D432
:100F50002078000722D5864F87486169703771B1C4
:100F600001210160FFF7CCFD064604E0FFF7C8FD54
:100F7000801B022809D838688007F7D50EE0C0F832
:100F800000A0FFF7BDFD064605E082E0FFF7B8FDD3
:100F9000801B02287DD838688007F7D42078400766
:100FA00068D5DFF8CCB100270BF13C0BDBF8000073
:100FB000C0000BD4DBF8001041F08051CBF80010DA
:100FC000DBF80000012700F0805000906B4E306885
:100FD000C00510D4306840F480703060FFF790FD99
:100FE000009005E0FFF78CFD0099401A022850D8C8
:100FF0003068C005F6D55E4EA0686C3601280FD06B
:101000000528306810D020F001003060306820F0F2
:1010100004003060A068B8B1FFF772FD00900FE0E7
:10102000306840F00100F4E740F004003060F7E77A
:10103000FFF766FD0099411A41F28830814266D877
:1010400030688007F4D50EE0FFF75AFD009007E006
:10105000FFF756FD0099411A41F28830814256D877
:1010600030688007F4D42FB1DBF8001021F08051F4
:10107000CBF80010A069C8B33D49091D0968C1F348
:10108000810102294AD00228504607D0C8F86000E2
:1010900000E03CE0FFF734FD04463BE04746C8F87B
:1010A0006000FFF72DFD064605E000BFFFF728FDB5
:1010B000801B02282BD828688001F7D4D4E90701C7
:1010C0000843A16A2E4A490802EB0141626A41EADB
:1010D0008211084394F82C1040EA0161C9F800100D
:1010E00001203866FFF70CFD044606E03EE000BF35
:1010F000FFF706FD001B022809D828688001F7D5F4
:1011000034E000BFFFF7FCFC001B022802D90320DB
:10111000BDE8F88F28688001F4D427E00128F7D0D3
:10112000D9F80000E26900F4800191421CD1226AE2
:1011300000F03F01914217D147F6C071626A014049
:10114000B1EB821F10D1A26A4FF0FF3300F440319F
:1011500003EB5202B1EB024F06D194F82C1000F0D1
:101160007060B0EB016F01D00120D1E70020CFE724
:101170000438024000004742800E474200700040A1
:101180000000FFFF10B5401EB0F1807F01D30120A9
:1011900010BD4FF0E02460610F21601701F0B5FB36
:1011A0000020A06107202061002010BD704770471B
:1011B00070B590F83C20012A32D0012480F83C40E0
:1011C000022280F83D2003685A689D6822F070066C
:1011D0000A6832435A60134B02689A4214D0B2F143
:1011E000804F11D0104B9A420ED0104B9A420BD028
:1011F0000F4B9A4208D00F4B9A4205D00E4B9A42A1
:1012000002D00E4B9A4204D1496825F0800319435D
:10121000916080F83D40002180F83C10084670BD88
:10122000022070BD000001400004004000080040A2
:10123000000C004000040140004001400018004044
:1012400010B5040003D094F83D0010B107E0012070
:1012500010BD002084F83C00204600F01FF802205A
:1012600084F83D00211D206801F080F8012084F8F9
:10127000460084F83E0084F83F0084F8400084F87B
:10128000410084F8420084F8430084F8440084F864
:10129000450084F83D00002010BD000008B500683E
:1012A0000B49884212D10B48016841F400310160BA
:1012B0000068002200F40030009011461920FFF76A
:1012C0008DFCBDE808401920FFF77ABC08BD00007E
:1012D000004401404438024090F83D10012901D0FB
:1012E00001207047022180F83D100168CA6842F071
:1012F0000102CA6000681149884214D0B0F1804FE1
:1013000011D00F4988420ED00E4988420BD00E49A9
:10131000884208D00D49884205D00D49884202D044
:101320000C49884204D1816801F00701062903D0E5
:10133000016841F001010160002070470000014098
:101340000004004000080040000C00400004014080
:101350000040014000180040704770B50446006826
:1013600001694FF00005C943890715D4C168C94315
:10137000890711D4E91E0161012020772068806966
:101380008007204602D0FFF7E7FF04E000F0ECF80A
:10139000204600F0A9F9257720680169C94349076B
:1013A00017D4C168C943490713D46FF00401016120
:1013B000022020772068806910F4407F204602D008
:1013C000FFF7CAFF04E000F0CFF8204600F08CF9E8
:1013D000257720680169C943090716D4C168C94344
:1013E000090712D46FF008010161042020772068FA
:1013F000C0698007204602D0FFF7AEFF04E000F08E
:10140000B3F8204600F070F9257720680169C943D8
:10141000C90617D4C168C943C90613D46FF01001B7
:101420000161082020772068C06910F4407F2046C1
:1014300002D0FFF791FF04E000F096F8204600F09C
:1014400053F9257720680169C943C90708D1C168E4
:10145000C943C90704D1891E0161204600F0AAF9D9
:1014600020680169C943090609D4C168C94309064E
:1014700005D46FF0800101612046FFF797FE2068D8
:101480000169C943490609D4C168C943490605D45D
:101490006FF040010161204600F0BCF9206801694D
:1014A000C94389060BD4C168C943890607D46FF0C4
:1014B000200101612046BDE87040FFF778BE70BD95
:1014C00070B586B0044614216846FEF7B1FE246864
:1014D00000222049022301251F48B4F1804F15D076
:1014E0001E4EB44222D10C6844F002040C6009681C
:1014F0000095CDE9013201F00201CDE904310392FA
:101500004FEA0D01FFF7FAF906B070BD0C6844F020
:1015100002040C60096801F00201059108210091A4
:10152000CDE90132CDE903256946EBE70C48844259
:10153000EAD1086840F0080008600868694600F0D1
:1015400008000590A0140090CDE901320548CDE9CE
:101550000323D7E730380240000402400004004073
:1015600000080040000C0240704770B5044690F837
:101570003C0000260D4601280FD0012084F83C00D5
:101580006AB1042A1DD0082A2FD00C2A3FD0012688
:10159000002084F83C00304670BD022070BD2068F9
:1015A00000F056FF2068816941F0080181612068E0
:1015B000816921F004018161206881692A691143F0
:1015C00011E0206800F074FF2068816941F4006137
:1015D00081612068816921F480618161206881696D
:1015E0002A6941EA02218161D2E7206800F096FF72
:1015F0002068C16941F00801C1612068C16921F01A
:101600000401C1612068C1692A69114311E02068A1
:1016100000F0B8FF2068C16941F40061C161206831
:10162000C16921F48061C1612068C1692A6941EA08
:101630000221C161ACE710B5040003D094F83D006D
:1016400010B107E0012010BD002084F83C002046C6
:1016500000F01EF8022084F83D00211D206800F0F3
:1016600085FE012084F8460084F83E0084F83F009F
:1016700084F8400084F8410084F8420084F8430074
:1016800084F8440084F8450084F83D00002010BD33
:1016900008B501681148B1F1804F0BD0104A914252
:1016A00010D1016841F002010160006800F0020001
:1016B000009008BD016841F001010160006800F080
:1016C0000100F5E7074A9142F3D1016841F00401B6
:1016D0000160006800F00400EAE7000040380240C2
:1016E00000040040000800407047000010B50446A8
:1016F000022249B104290ED0082913D094F84100E0
:10170000012816D0012010BD94F83E000128F9D11F
:1017100084F83E200FE094F83F000128F2D184F8CD
:101720003F2008E094F840000128EBD184F84020E5
:1017300001E084F841200122206800F07BFE164978
:101740002068164A884201D0904203D1436C43F48A
:10175000004343642068884213D0B0F1804F10D01A
:101760000F4988420DD00F4988420AD00E4988425D
:1017700007D0904205D00D49884202D00C498842DA
:1017800004D1816801F00701062903D0016841F006
:1017900001010160002010BD000001400004014073
:1017A0000004004000080040000C004000400140E0
:1017B0000018004010B500681449884225D1144C27
:1017C000E068401C052190FBF1F2E06001FB120093
:1017D00008B901F0D5FCE0680A2190FBF1F201FBA9
:1017E000120008B901F058FCE0680F2190FBF1F1FC
:1017F000142190FBF1F201FB120008B901F082FC08
:10180000E068142801DD0020E06010BD00440140C4
:10181000780000207047704770470000F8B50168F5
:1018200004460868CA684B6910F00F0F4FF00005B6
:1018300059D003F0010602F49077374365D0C10711
:1018400005D0D10503D5216C41F001012164410788
:1018500005D5D90703D0216C41F00201216481072D
:1018600005D5D90703D0216C41F00401216401079B
:1018700007D502F02001314303D0216C41F008016B
:101880002164216C00293AD0800604D5900602D547
:10189000204600F0D4FE20684069216CC0F380101F
:1018A000090700D460B3204600F0A2FE206840691A
:1018B000400621D52068143050E8001F21F0400177
:1018C00040E80012002AF5D1A06BA8B16C4901656F
:1018D000A06BFEF7AFFF002811D0A06B016D01B027
:1018E000BDE8F040084783060FD593060DD5204686
:1018F000BDE8F84000F0A3BE2046FFF78DFFF8BD1D
:101900002046FFF789FF2564F8BD266B2023012EB2
:1019100079D1C60677D5D60675D50868486800908F
:101920004869400640D5A16B086840680004000C77
:10193000EAD0A28D8242E7D9E085C869B0F5807F00
:101940002DD020680C3050E8001F21F4807140E851
:101950000012002AF5D12068143050E8001F21F051
:10196000010140E80012002AF5D12068143050E847
:10197000001F21F0400140E80012002AF5D184F850
:101980003E30256320680C3050E8001F21F0100124
:1019900040E80012002AF5D1A06BFEF702FFA08DEF
:1019A000E18D401A81B229E0A08DE18D401A81B20B
:1019B000E08D0028A8D00029A6D020680C3050E87F
:1019C000002F22F4907240E80026002EF5D1206806
:1019D000143050E8002F22F0010240E80026002ECB
:1019E000F5D184F83E30256320680C3050E8002F94
:1019F00022F0100240E80023002BF5D12046FFF72B
:101A00000AFFF8BDFFE705062BD5150629D594F882
:101A10003D002128F5D1A068B0F5805F01D1206993
:101A2000B0B1206A411C2162216800784860E08CD6
:101A3000401E0004000CE084E3D12068C16821F05E
:101A40008001C1602068C16841F04001C160D8E7F1
:101A5000206A0088C0F308004860206A801C206269
:101A6000E5E74006CDD55006CBD5CA68204622F022
:101A70004002CA6084F83D3000F0B7F9C1E70000C9
:101A8000E125000870B5040004D094F83D0000255D
:101A900010B106E0012070BD84F83C50204600F0F3
:101AA00023F8242084F83D002068C16821F4005107
:101AB000C160204600F024FE2068016921F49041B5
:101AC00001612068416921F02A0141612068C168F3
:101AD00041F40051C1602564202084F83D0084F861
:101AE0003E00002070BD0000F0B587B00446142110
:101AF0006846FEF79DFB3E493C4E276800223C4865
:101B00001039022303244FF44065B74220D1066800
:101B100046F400260660006800F40020059008687E
:101B200040F0040008600868009500F0040005908B
:101B30000820CDE90340CDE9013269462D48FEF782
:101B4000DDFE002211463420FFF748F8342024E05F
:101B5000DFF8A4C00726674523D1056845F40035A2
:101B60000560006800F400300590086840F001004E
:101B70000860086802AD00F0010005900C20CDE976
:101B8000000385E8540069461C48FEF7B7FE0022B2
:101B900011462620FFF722F82620FFF711F807B09C
:101BA000F0BDDFF85CC06745F9D1076847F48027CE
:101BB0000760006800F480200590086840F002008B
:101BC00008600868009500F00200CDE90460039405
:101BD000CDE9013269460B48FEF790FE002211461E
:101BE0002720FEF7FBFF2720D7E70000004C00402E
:101BF000403802400008024000440040000002401B
:101C0000004800400004024090F83E30202B0ED1E6
:101C100059B152B190F83C30012B08D0012380F823
:101C20003C300023036300F0F1BD01207047022027
:101C3000704700002DE9F05FDFF8E09000240125F7
:101C400099F80000364EDFF8DC80DFF8DCA04FF0BA
:101C5000020B012821D1354F387818BB9AF80000C3
:101C60006C2806D0722808D075280AD073281AD09C
:101C700021E0347088F8005009E0347088F800B032
:101C800005E02B49347088F80040052008700122D7
:101C900002212848FEF72FFF3D7099F800004F46BB
:101CA00003280AD017E03570012202212148FEF7EF
:101CB00022FF89F800503C700DE09AF800004FF0C8
:101CC00004096C280FD0722811D0752813D0032175
:101CD00073281BD03970BDE8F05F1349012201F170
:101CE0008000FFF791BF347088F8015006E034702F
:101CF00088F801B002E0347088F801400122022126
:101D00000C48FEF7F8FE87F80090E4E7357039706C
:101D1000012202210748FEF7EEFEDCE72A00002040
:101D20007A0000202D000020BC0100208800002047
:101D30002C000020000C02402DE9F843044690F8E6
:101D40003D001F4616460D4620284CD1C5B1BEB1F8
:101D500094F83C00012846D0012084F83C004FF064
:101D60000008C4F84080212084F83D00FEF7C8FE3A
:101D7000A6848146E684A068B0F5805F03D004E0C5
:101D80000120BDE8F883206928B12E465FF00005E8
:101D900084F83C800EE00026FAE78021204600F01F
:101DA00052FDA0B9AEB116F8010B21684860E08C75
:101DB000401EE084E08C4B464FF000020097002864
:101DC000EBD14FF04001204600F03DFD30B1032043
:101DD000D7E735F8020BC0F30800E6E7202084F8C7
:101DE0003D000020CDE70220CBE77047FEE7000072
:101DF0002DE9F04786B014216846FEF719FA5548D8
:101E00000024016841F010010160016801F0100137
:101E10000591016841F080010160016801F08001D5
:101E20000591016841F004010160016801F00401BD
:101E30000591016841F001010160016801F00101B3
:101E40000591016841F002010160016801F00201A1
:101E50000591016841F00801016000683E4E00F004
:101E6000080005900022F0213046FEF744FE3B4F6B
:101E7000002230213846FEF73EFEDFF8E4A00022C3
:101E8000E2215046FEF737FEDFF8D880002202211B
:101E90004046FEF730FE6C2001258DE83100DFF86A
:101EA000C89069464846FEF729FD40F2C230CDE9A8
:101EB0000004694638460294FEF720FDF0200090A9
:101EC000CDE90154694630460394FEF717FD3020F2
:101ED0000090CDE90154694638460394FEF70EFDA3
:101EE00062200090CDE90154694650460394FEF704
:101EF00005FD4FF408508DE8310069464846FEF76D
:101F0000FDFC4FF4904000904FF48810CDE901059E
:101F100069464846FEF7F2FC02200090CDE90154E4
:101F2000694640460394FEF7E9FC802000901120AA
:101F3000CDE90104694650460394FEF7DFFC002218
:101F400011462820FEF74AFE2820FEF739FE06B08B
:101F5000BDE8F0873038024000000240000802402F
:101F600000040240000C0240001002400B4810B573
:101F70000949016044F29F11416000210922C0E932
:101F8000021201618161FFF75BF9002803D0BDE80F
:101F90001040FEF704BC10BD004401407401002055
:101FA00010B58AB0002407941C2168460894FEF7F7
:101FB0003FF916484FF0804101600B21C0E9011440
:101FC00040F2E731C0E903148461FFF734FB08B144
:101FD000FEF7E5FB079407A90C480894FFF7E8F81B
:101FE00008B1FEF7DCFB6020CDE900040294042276
:101FF000694606480494FFF7B8FA08B1FEF7CFFB2C
:102000000248FFF75DFA0AB010BD00009C000020F6
:1020100010B58AB0002407941C2168460894FEF786
:1020200007F91648144901600B21C0E9011440F278
:10203000E731C0E903148461FFF7FDFA08B1FEF748
:10204000AEFB079407A90D480894FFF7B1F808B153
:10205000FEF7A5FB6020CDE9000402940822694642
:1020600006480494FFF781FA08B1FEF798FB03488D
:10207000FFF726FA0AB010BD00040040E40000207B
:1020800010B58AB0002407941C2168460894FEF716
:10209000CFF817481549016040F24F11C0E901140B
:1020A00042F20F71C0E903148461FFF7C4FA08B16A
:1020B000FEF775FB079407A90D480894FFF778F819
:1020C00008B1FEF76CFB6020CDE900040294002209
:1020D000694607480494FFF748FA08B1FEF75FFB2A
:1020E0000348FFF7EDF90AB010BD000000080040FA
:1020F0002C0100200E4810B50C4901604FF4E1316D
:102100004160002181600C22C160C0E9041281613C
:10211000C161FFF7B7FC08B1FEF741FB044901229A
:10212000BDE8104080390248FFF76EBD004C00400A
:102130003C0200200C4810B50A4901604FF4E1311F
:102140004160002181600C22C160C0E904128161FC
:10215000C161FFF797FC002803D0BDE81040FEF7EF
:102160001EBB10BD00440040800200200C4810B58A
:102170000A4901604FF4E1314160002181600C2285
:10218000C160C0E904128161C161FFF77BFC0028D6
:1021900003D0BDE81040FEF702BB10BD0048004070
:1021A000C4020020FEE7FEE710B504460421034800
:1021B000FFF79CFA01480068846310BD9C00002072
:1021C00010B5044608210348FFF790FA014800685B
:1021D000C46310BDE400002010B50446002103488C
:1021E000FFF784FA01480068446310BD2C01002009
:1021F0007047000010B52DED028B01F035F801F0AD
:102200004DF82648B0F90000FEF736F941EC180BFE
:102210002348B0F90000FEF72FF941EC100BB0EEA7
:10222000481AF0EE681A00F0EFFC51EC100BFEF7C4
:1022300047F9FEF732F99FED1B1B53EC112BFEF70C
:10224000A9F8FEF73DF900EE100A184880ED050ADE
:102250000178F1B11649F7EE001AB1F900100E3904
:1022600000EE901AB8EEE01A80ED031AD0ED010AE4
:10227000D0ED022A31EEE02AD0ED041A41EE221A06
:1022800022EE211A00EE801A80ED041ABDEC028BBA
:1022900010BD80ED040A01210170F7E7080000205D
:1022A000060000206666666666A64C400C000020AC
:1022B000040000207047FEF729BC000030B593B041
:1022C00030216846FDF7B4FF14210CA8FDF7B0FFDC
:1022D0001D480025016841F080510160006800F050
:1022E000805011901948016841F4804101600068F4
:1022F000022400F4804011900120039010200490EB
:10230000009406940820CDE90750A020CDE90904E7
:1023100004200B906846FEF77FFD08B172B6FEE719
:102320000CA90F2081E831004FF4A0500F904FF41A
:102330008050109005210CA8FEF782FC002801D0E7
:1023400072B6FEE713B030BD403802400070004066
:102350000248016841F470010160704788ED00E0B7
:102360000148FEF7FABF000074010020F0B50268D2
:10237000254C264D264E274F274B4FF0804CA04230
:1023800009D0604507D0A84205D0B04203D0B8427A
:1023900001D0984204D122F0700E4A6842EA0E023F
:1023A000A0421BD0604519D0A84217D0B04215D02A
:1023B000B84213D0984211D0184DA8420ED0184DF3
:1023C000A8420BD0174DA84208D0174DA84205D0FF
:1023D000164DA84202D0164DA84203D122F44075F2
:1023E000CA682A434D6922F080022A4302608A6843
:1023F000C2620A688262A04201D0984201D1096992
:10240000016301214161F0BD000001400004004072
:1024100000080040000C0040000401400040014062
:10242000004401400048014000180040001C0040EA
:102430000020004010B501F01F030121046A9940FB
:102440008C430462016A9A401143016210BD00008E
:10245000F0B5026A22F001020262036A42688469EE
:10246000124E24F073050C682C4323F002058B6890
:102470002B430D4DA84201D0B04205D123F00807EF
:10248000CB683B4323F00403A84201D0B04205D1FE
:102490004D6922F4407215438A692A43426084617F
:1024A000496841630362F0BD00000140000401403F
:1024B000F0B5026A22F010020262026A436884697F
:1024C0000D6824F4E64444EA05248D6822F02002D5
:1024D00042EA05120F4D104EA84201D0B04206D17B
:1024E000CF6822F0800242EA071222F04002A8429E
:1024F00001D0B04207D14D6923F4406343EA85031C
:102500008D6943EA8503436084614968816302629F
:10251000F0BD00000000014000040140F0B5026A77
:1025200022F480720262026A4368C46922F4007273
:1025300024F073050C68124E2C438D6842EA052284
:102540000E4DA84201D0B04206D1CF6822F40062FD
:1025500042EA072222F48062A84201D0B04207D1A9
:102560004D6923F4405343EA05138D6943EA05138B
:102570004360C4614968C1630262F0BD000001406C
:102580000004014030B5026A22F480520262046AFB
:102590004268C3690D6823F4E64343EA05238D6866
:1025A00024F4005444EA0534084DA84202D0084DF2
:1025B000A84204D14D6922F4804242EA8512426069
:1025C000C36149680164046230BD0000000001403D
:1025D000000401400148FFF721B900003C0200203F
:1025E00010B5806B0021C185C184FFF715F910BDBE
:1025F00001680C3151E8002F22F4907241E8002369
:10260000002BF5D10168143151E8002F22F00102AE
:1026100041E80023002BF5D1016B012909D10168A4
:102620000C3151E8002F22F0100241E80023002B6A
:10263000F5D1202180F83E1000210163704708B5D4
:1026400090F83E10222901D0022008BD82684FF484
:1026500080539A4201D1016921B1816A9A421BD00B
:102660004AB10AE00268816A5268C2F308020A802D
:10267000816A891C08E0026972B10268526802F03E
:102680007F020A70816A491C8162C18D491E09045A
:10269000090CC18503D019E002685268F1E70168AE
:1026A000CA6822F02002CA600168CA6822F48072F7
:1026B000CA6001684A6922F001024A61202180F85B
:1026C0003E10016B012903D0FFF7B4FA002008BDCA
:1026D0000021016301680C3151E8002F22F0100243
:1026E00041E80023002BF5D101680A68D20602D523
:1026F0000A6849680091818DFFF78DF8E6E70000D0
:1027000070B5044600680169E26821F44051114344
:1027100001612169A068E2690843616911430843C6
:102720002168CA6849F20C639A430243CA60206870
:102730004169A26921F44071114341613149206826
:10274000884202D03049884202D1FEF723FB01E0E3
:10275000FEF710FBE2690023192164253226B2F549
:10276000004F626828D0A0FB0101930F9200FDF793
:1027700027FD0146B0FBF5F06FF01802504301EB66
:10278000800006EB0010B0FBF5F000F0F002B1FBAA
:10279000F5F002EB0012B1FBF5F06FF018035843AF
:1027A00001EB800006EB0010B0FBF5F000F00F002D
:1027B00021681044886070BDA0FB010192185B4144
:1027C000FDF7FEFC0146B0FBF5F00201B1FBF5F0B0
:1027D0006FF01803584301EB800006EBC000B0FB1C
:1027E000F5F000F0F80002EB4002B1FBF5F05843C1
:1027F00001EB800006EBC000B0FBF5F000F0070035
:10280000D6E700000010014000140140816282857B
:10281000C28500210164222280F83E2080F83C100D
:10282000016921B10168CA6842F48072CA60016816
:102830004A6942F001024A610068C16841F0200122
:10284000C160002070472DE9F041984617460E46BA
:102850000446069D27E0681C25D02DB1FEF750F9EF
:10286000A0EB0800A8421ED920680C3050E8001FD9
:1028700021F4D07140E80012002AF5D1206814300C
:1028800050E8001F21F0010140E80012002AF5D1B4
:10289000202084F83D0084F83E00002084F83C00AD
:1028A0000320BDE8F0812068006836EA000004D00B
:1028B0000020B842CFD00020F3E70120F9E7000064
:1028C0000148FEF7ABBF0000800200200148FEF780
:1028D000A5BF0000C4020020FEE703B40198410038
:1028E000009850EAC12018BF04204A0D18BF40F0DC
:1028F000010040F2FF72B2EB515F08BF40F00200EE
:10290000012808BF052002B070470907090E0028FA
:1029100004DB00F1E02080F80014704700F00F00A5
:1029200000F1E02080F8141D704700000000000056
:1029300070B59B482DED020B2DED068B079D25F004
:102940000044A04218DC9748844202DC0AD1069871
:1029500040B19DED060BBDEC068B02B0BDE87040AA
:1029600000F0C6BA002DCCBF9FED8F0B9FED900BF2
:10297000BDEC068B02B070BD8F48A04215DD8F48BC
:10298000A042D8BF4FF0FF3458DD9DED060B51EC4F
:10299000100BFFF7A2FF042808BF00F0BDFA9DED61
:1029A000060BBDEC068B02B070BD9DED060B51EC25
:1029B000100B00F04DFCCDE9060181489FED828BA4
:1029C000A0423CDD8248A0421FDD00249FED82AB87
:1029D0009DED060B53EC1A2B51EC100BFDF733FC5D
:1029E0009DED060B41EC190B53EC1A2B51EC100B1F
:1029F000FDF7D0FC53EC182BFDF7C6FC53EC192B5C
:102A0000FDF73FFECDE9060149E09DED060B0124EF
:102A100053EC182B51EC100BFDF715FC9DED060B3C
:102A200041EC190B53EC182B51EC100BFDF7ACFCDF
:102A300053EC192BFDF725FECDE906012FE0684880
:102A4000A0421FDD02249FED689B9DED060B53EC19
:102A5000192B51EC100BFDF79DFC53EC182BFDF7D7
:102A6000F2FB9DED060B41EC180B53EC192B51ECCE
:102A7000100BFDF789FC53EC182BFDF702FECDE996
:102A800006010CE09DED060B032453EC102B9FED8B
:102A9000580B51EC100BFDF7F4FDCDE906019DED4F
:102AA000060B53EC102B51EC100BFDF773FC41ECB3
:102AB000180B53EC182BFDF76DFC41EC190B4E482D
:102AC0000621B0EE490AF0EE690A784400F094F964
:102AD00053EC182B51EC100BFDF75CFC41EC180B80
:102AE0004648B0EE490AF0EE690A0521784400F044
:102AF00083F953EC192B51EC100BFDF74BFC41EC17
:102B0000100B51EC180B53EC102B002C0EDAFDF7C8
:102B10009AFB9DED061B53EC112BFDF73BFC9DED45
:102B2000061B53EC112BFDF732FC35E0FDF78BFB58
:102B30009DED061B53EC112BFDF72CFC41EC100B0B
:102B40002F48784400EBC40090ED001B51EC100BB3
:102B500053EC112BFDF718FC9DED061B53EC112BCC
:102B6000FDF712FC41EC100B2648784400EBC40042
:102B700090ED001B51EC100B53EC112BFDF707FCF3
:102B800041EC100B002DA2BFBDEC068B02B070BD56
:102B900051EC100B81F0004141EC100B01E70000FB
:102BA000000010440000F07F182D4454FB21F93F31
:102BB000182D4454FB21F9BF0000DC3F0000203EEB
:102BC0000000F33F00000000000000000000F03FA4
:102BD0000000E63F00000000000000000000004090
:102BE0000080034000000000000000000000F83FEB
:102BF000000000000000F0BF620F0000180F00008E
:102C0000A20E00005A0E000070B56B4E2DED040BA5
:102C10002DED028B82B0DDF81CC0DDE905235C429E
:102C20002CF000411C4341EAD474049D22F0004082
:102C3000B44205D86C422C4340EAD474B4420BD958
:102C40009DED061B9DED040B02B0BDEC028B04B0A4
:102C5000BDE8704000F056B9ACF14054A4F17F6477
:102C60001C430BD0022404EAAC7444EAD27405433A
:102C70009FED538B9FED542B07D015E09DED040B7A
:102C800051EC100B00F067F942E0002C11BF012C51
:102C90009DED040B02B0BDEC028B04BF04B070BD0F
:102CA000022C38D0032C3BD00B439FED491B9FEDEA
:102CB0004A0B0AD0B14218D1B04209D121F080416B
:102CC00020F08040079105900FE0002A15DA10E00F
:102CD000434B7B44002C08BF93ED000B0DD0012C1F
:102CE00010D0022C17D0032C1AD0B0421DD1002ACC
:102CF00003DAB0EE410AF0EE610A02B0BDEC028BDD
:102D000004B070BD93ED000B51EC100B81F000414D
:102D100041EC100BF1E7B0EE480AF0EE680AECE780
:102D2000B0EE420AF0EE620AE7E7401A00153C28CE
:102D3000C8BF8DED000B19DCBCF1000FBEBF10F158
:102D40003C0F9FED290B8DED000B0FDB9DED060B6E
:102D500053EC102B9DED040B51EC100BFDF791FC87
:102D600000F076FA00F0F7F8CDE90001002C08BF7A
:102D70009DED000BC1D0012C10D0022C9FED1C0B3F
:102D800053EC102B9DED000B51EC100B0DD0FDF70B
:102D9000FBFA53EC182BFDF7F7FAB9E7019880F02E
:102DA000004001909DED000BA7E7FDF7EDFA53EC15
:102DB000182BFDF7ECFAABE70000F07F00000000F5
:102DC000182D4454FB210940182D4454FB2109C0FF
:102DD000182D4454FB21F9BF182D4454FB21F93F11
:102DE0008A0D00000000000000000000000000004C
:102DF000075C143326A6A13C70B504462DED028B6A
:102E00004D1E00EBC500B0EE408AF0EE608A90EDFA
:102E1000000B35F0060017D053EC182B51EC100BBB
:102E2000FDF7B8FA41EC100B6D1E04EBC50090EDF8
:102E3000001B51EC100B53EC112BFDF704FA41EC85
:102E4000100B35F00600E7D1022D36D0042D1CD032
:102E5000062D1CBFBDEC028B70BD53EC182B51EC42
:102E6000100BFDF797FA94ED0A1B53EC112BFDF7AD
:102E7000EAF953EC182BFDF78DFA94ED081B53EC8F
:102E8000112BFDF7E0F941EC100B53EC182B51EC32
:102E9000100BFDF77FFA94ED061B53EC112BFDF799
:102EA000D2F953EC182BFDF775FA94ED040B53ECA3
:102EB000102BFDF7C8F941EC100B53EC182B51EC1B
:102EC000100BFDF767FA94ED021B53EC112BFDF785
:102ED000BAF953EC182BFDF75DFA94ED001B53EC97
:102EE000112BFDF7B0F9BDEC028B41EC100B70BD5E
:102EF00010B553EC102B51EC100BFDF7A4F941EC7D
:102F0000100B10BD10B553EC112B51EC100BFDF74D
:102F10009AF941EC100B10BD9FED050B10B553EC69
:102F2000102B51EC100BFDF735FA41EC100B10BDD6
:102F3000000000000000001002E008C8121F08C1D5
:102F4000002AFAD170477047002001E001C1121F2A
:102F5000002AFBD1704710B541EC100BFFF7E8FCDD
:102F600051EC100B10BD000010B5164916482DEDA0
:102F7000028BB0EE408A9FED120AB5EEC08AF1EEE8
:102F800010FA07DD18EE102A8A4201DDB0EE408A01
:102F9000012208E0B1EE488A18EE102A8A4201DDCB
:102FA000B0EE408A00222021FDF7A5FDBDEEC80A43
:102FB000BDEC028BBDE8104010EE100AFFF7F4B82C
:102FC00000C0474400C047440004024070B5284C8C
:102FD0002DED028BB0EE408AE068FDF75EFA9FEDC2
:102FE000251B53EC112BFDF7D5F9FDF769FA0546C2
:102FF00018EE100AFDF751FA9FED201B53EC112B30
:10300000FDF7C8F941EC180B2846FDF746FA53ECDA
:10301000182BFDF718F9FDF753FA00EE900A19493D
:10302000C4ED030A94ED040A30EE200A84ED040A8C
:10303000206A884203DD9FED141A84ED081A1349B3
:10304000206A884203D99FED121A84ED081A0848B5
:10305000DFED101A343090ED011A21EE001A81EEE6
:10306000210A90ED001ABDEC028B00EE810A70BDC2
:1030700028000020666666666666E63F33333333B3
:103080003333D33F0000FA440000FA440000FAC48E
:103090000000FAC40000C84230B51848164A8188BA
:1030A00015780B46491C8CB20021012D02D0022D4F
:1030B00003D008E06E2B02D903E0642B01D8848092
:1030C00001E0117081800E4C23782BB9C388642BEA
:1030D00002D85B1CC38002E001232370C1801278F8
:1030E00042B10189491C89B201814289914200D9CA
:1030F000028130BD018130BD290000207800002010
:103100002B00002010B5174CA07801280AD000F041
:10311000BDFA154815490078097888420AD16078C7
:1031200028B107E04FF4A070FFF756F8F1E701204F
:10313000A07060700E48A178007851EA000201D0BA
:1031400019B108E09FED0B0A07E09FED0B0A02287A
:1031500003D0012801D09FED090ABDE8104000F01E
:103160006FB90000780000202A0000202C00002009
:10317000290000200000E6420000AA4200000000F2
:103180002DE9F04100F05AF8074627489FED250A3F
:1031900080ED000AFFF72EF82448254D254EB0F9A2
:1031A0000000D5ED000A00EE100AB8EEC01A96ED48
:1031B000000A00F0B5F9BDEEC00A784210EE104AE0
:1031C00000EE100AB8EEC00AFFF700FFB1EE400AA9
:1031D000D5ED000ABDEEC00AB3EE041A164910EE92
:1031E000100A70EE811A96ED000AF4EEC01AF1EEA4
:1031F00010FA06D370EEC10AF4EEC00AF1EE10FA2E
:1032000002DD012008700BE00978012908D0001BBD
:10321000BDE8F04100EE100AB8EEC00AFFF7A4BE08
:103220000020F5E7000000004C0000200400002012
:10323000240000201C00002078000020034890EDAE
:10324000090ABDEEC00A10EE100A704728000020DF
:1032500082B0CDE9000121F0004001909DED000B0E
:1032600002B051EC100B70470EB500200090062301
:1032700001AA3B21682000F0F7FABDF8040041BA2A
:103280000548C180BDF8061049BA0181BDF8081093
:1032900049BA41810EBD0000000000200EB500209B
:1032A0000090062301AA4321682000F0DDFABDF852
:1032B000040041BA05480180BDF8061049BA4180B2
:1032C000BDF8081049BA81800EBD00000000002042
:1032D00070B5304C04212046FDF708FC2E4D98B106
:1032E00008212046FDF702FC70B120212046FDF7A1
:1032F000FDFB48B140212046FDF7F8FB20B102213B
:103300002846FDF7F3FBC0B904212046FDF7EEFB8C
:10331000A8B108212046FDF7E9FBC0B120212046D5
:10332000FDF7E4FBD8B140212046FDF7DFFBF0B10B
:1033300002212846FDF7DAFB10B3002070BD0525F9
:1033400004212046FDF7D2FB0028F9D016E0042521
:1033500008212046FDF7CAFB0028F9D00EE003251E
:1033600020212046FDF7C2FB0028F9D006E0012508
:1033700040212046FDF7BAFB0028F9D0284670BD51
:10338000022402212846FDF7B1FB0028F9D020468F
:1033900070BD00000010024000080240FDF7BEFBB7
:1033A000FEF78CFFFEF724FDFEF7C4FEFEF7F8FDE6
:1033B000FEF72EFEFEF764FEFEF79CFEFEF7D6FE3D
:1033C000FEF7D4FD164C012240212046FDF793FB69
:1033D000012280212046FDF78EFB012204211148A5
:1033E000FDF789FB00F05EF80F496FF001000968F6
:1033F00008610D48FDF770FF0C4C00BFFFF768FF38
:1034000020700528FAD13223012209A10948FEF7CC
:1034100093FC3223012208A10848FEF78DFCEDE75A
:1034200000040240001002407401002074000020DB
:103430006800000080020020610000003C020020C3
:1034400010B5164916482DED028BB0EE408A9FED5F
:10345000120AB5EEC08AF1EE10FA07DD18EE102A56
:103460008A4201DDB0EE408A012208E0B1EE488ACE
:1034700018EE102A8A4201DDB0EE408A00220221B5
:10348000FDF739FBBDEEC80ABDEC028BBDE810406C
:1034900010EE100AFEF794BE00C0794400C07944D3
:1034A0000004024010B56420FDF7D6F900F025F8BD
:1034B00000226B21682000F067FA0722192168209A
:1034C00000F062FA04221A21682000F05DFA182246
:1034D0001B21682000F058FA10221C21682000F0FF
:1034E00053FA00226A21682000F04EFA02223721A6
:1034F000BDE81040682000F047BA10B500226B21EB
:10350000682000F041FA07221921682000F03CFAF7
:1035100000221921682000F086F90728F8D110BD93
:10352000154830EE600A154AD0ED050A70EE800AA3
:1035300010EE901AC0ED050A914203DDF3EE0E0A7B
:10354000C0ED050A10EE901A0D4A914203D9FBEE28
:103550000E0AC0ED050A0849D0ED051A4031D1ED3B
:10356000000A20EE800AD1ED010A00EEA10AD1ED99
:10357000020A01EE200A7047280000200000F041F6
:103580000000F0C12DE9F0411C4E80460024224687
:1035900040213046FDF7AFFA00F040F901228021CA
:1035A0003046FDF7A8FA154F0025103700F036F920
:1035B000002240213046FDF79EFA00F02FF901224B
:1035C00040213046FDF797FA00F028F96006040E16
:1035D0003868000601D5641CE4B26D1CEDB2082DFC
:1035E000E4D3002240213046FDF785FA00F016F9B9
:1035F000404600F067F92046BDE8F0810004024033
:1036000070B505460824204E18E0280601D5012291
:1036100000E0002280213046FDF76DFA6806050EB5
:1036200000F0FCF8012240213046FDF764FA00F07A
:10363000F5F8002240213046FDF75DFA641EE4B241
:10364000E3D2002240213046FDF755FA00F0E6F8BB
:10365000012240213046FDF74EFA00F0DFF80A481B
:10366000103000684FF0000200064FF04001304675
:1036700003D5BDE87040FDF73EBAFDF73CFABDE862
:10368000704000F0CBB800000004024070B5304E2E
:1036900040213046FDF72AFA00252E4C012824D17E
:1036A00080213046FDF722FA01281ED14021304604
:1036B000FDF71CFA012818D180213046FDF716FAD3
:1036C000012812D1E07801280FD1A0782179884211
:1036D0000BD02149097841B9401CA0703223012246
:1036E0001EA11F48FEF728FBE5701A4AA178521D5B
:1036F000012907D01B48022909D0042904D0052933
:1037000005D009E0107800E05078607004E0657042
:1037100000220221FDF7EFF9607808B900F024F8E3
:103720006078012803D140F27910FEF755FD6078EA
:10373000022803D140F21D10FEF74EFD60780328E9
:1037400004D14FF4A070FEF747FD657070BD000016
:1037500000080240280000207A000020330000000A
:103760003C020020000C02402DE9F047294E4FF4A6
:10377000007529463046FDF7B9F94FF4A0790128C4
:1037800005D180213046FDF7B1F9012809D029463D
:103790003046FDF7ABF9204C40F24F18012802D01B
:1037A00006E0484629E080213046FDF79FF938B110
:1037B00029463046FDF79AF940F2311728B10AE060
:1037C0004046FEF709FD01201FE080213046FDF74D
:1037D0008DF9012815D029463046FDF787F90028D4
:1037E00014D180213046FDF781F900280ED12078D0
:1037F00001280DD00228D4D13846BDE8F047FEF7A5
:10380000EBBC3846FEF7E8FC02202070BDE8F087EC
:103810004046F2E700080240280000206420401ED5
:1038200080B2FCD2704770B515460E46044600F0D3
:103830006DF86006000EFFF7E3FE3046FFF7E0FE8E
:10384000012D01D100F080F800F060F8012000EBBC
:103850004400C0B2FFF7D4FE0020FFF793FE0446F9
:1038600000F072F8204670BD2DE9F0411D46144667
:1038700088460646069F00F049F87006000EFFF7DE
:10388000BFFE4046FFF7BCFE012F01D100F05CF8FF
:1038900000F03CF8012000EB4600C0B2FFF7B0FE9C
:1038A00004E00120FFF76EFE04F8010B6D1E15F019
:1038B000FF05F6D10020FFF765FE2070BDE8F0415E
:1038C00000F042B870B5104C054600224021204659
:1038D000FDF711F9FFF7A2FF0DB1002200E0012270
:1038E00080212046FDF707F9012240212046FDF7FF
:1038F00002F9FFF793FF002240212046FDF7FBF875
:10390000BDE87040FFF78ABF0004024010B50D4CBF
:10391000012280212046FDF7EEF8012240212046B9
:10392000FDF7E9F8FFF77AFF002280212046FDF736
:10393000E2F8FFF773FF20460022BDE81040402167
:10394000FDF7D9B80004024010B50E4C00228021CA
:103950002046FDF7D0F8002240212046FDF7CBF8A5
:10396000FFF75CFF012240212046FDF7C4F8FFF776
:1039700055FF012280212046FDF7BDF8BDE810402B
:10398000FFF74CBF0004024070B515460E460446D2
:10399000FFF7BCFF6006000EFFF732FE3046FFF770
:1039A0002FFE2846FFF72CFEBDE87040FFF7CCBF86
:1039B00000000000000000000102030406070809DF
:1039C00000000000010203044FBB610567ACDD3F4E
:1039D000182D4454FB21E93F9BF681D20B73EF3F36
:1039E000182D4454FB21F93FE2652F227F2B7A3CAE
:1039F000075C143326A6813CBDCBF07A8807703C67
:103A0000075C143326A6913CC4EB98999999C9BFD9
:103A1000711623FEC671BCBF6D9A74AFF2B0B3BF0E
:103A20009AFDDE522DDEADBF2F6C6A2C44B4A2BFCE
:103A30000D5555555555D53FFF8300922449C23F3A
:103A40006E204CC5CD45B73F513DD0A0660DB13F6E
:103A5000EB0D76244B7BA93F11DA22E33AAD903F80
:103A60000000000000000000883A0008000000206C
:103A70009C000000382F0008243B00089C00002018
:103A80006C060000482F0008000000000000000045
:103A900000000000000000006F12033C5F29CB3AD9
:103AA0000000000000000000000000009A99B142F0
:103AB0000000000103000000000048420000000078
:103AC00000000000000000000000000000000000F6
:103AD0000000000000000000000080400000000026
:103AE0000000000000008A420000003F00000000CB
:103AF0000080ED44CDCC4C4000007042000000003E
:103B0000000000000000000000002C010000000088
:103B10000000000001000000100000000000000094
:043B20000024F40089
:040000050800018965
:00000001FF
